:100000000C94C8000C94E5000C94E5000C94E500F9
:100010000C94E5000C94E5000C94E5000C94E500CC
:100020000C94E5000C94E5000C94E5000C94E500BC
:100030000C94E5000C94E5000C94E5000C94E500AC
:100040000C94E5000C94E5000C94E5000C94E5009C
:100050000C94E5000C94E5000C94E5000C94E5008C
:100060000C94E5000C94E500084AD73B3BCE016EAA
:1000700084BCBFFDC12F3D6C74319ABD56833DDAFF
:100080003D00C77F11BED9E4BB4C3E916BAAAABE0E
:10009000000000803F0000407A10F35A00A0724E2A
:1000A00018090010A5D4E80000E87648170000E41D
:1000B0000B54020000CA9A3B000000E1F505000065
:1000C00080969800000040420F000000A0860100CA
:1000D0000000102700000000E8030000000064009A
:1000E000000000000A000000000001000000000005
:1000F0002C76D888DC674F0823DFC1DFAE59E1B129
:10010000B796E5E3E453C63AE651997696E8E6C237
:100110008426EB898C9B62ED407C6FFCEFBC9C9F3E
:1001200040F2BAA56FA5F490055A2AF75C936B6C60
:10013000F9676DC11BFCE0E40D47FEF520E6B50054
:10014000D0ED902E0300943577050080841E0800C2
:1001500000204E0A000000C80C333333330F986E72
:1001600012831141EF8D2114893BE65516CFFEE62F
:10017000DB18D1844B381BF77C1D901DA4BBE424F5
:10018000203284725E228100C9F124ECA1E53D2772
:1001900011241FBECFEFD8E0DEBFCDBF11E0A0E03D
:1001A000B1E0E6E7FFE102C005900D92AE36B1077F
:1001B000D9F721E0AEE6B1E001C01D92AA3CB2073A
:1001C000E1F70E94AE040C94B90F0C940000109259
:1001D000B90088E48093B800089594EA9093BC0035
:1001E0009091BC009923E4F79091B900987F9031E9
:1001F00091F48093BB0084E88093BC008091BC00A4
:100200008823E4F78091B900887F803431F0803210
:1002100031F482E0089580E0089581E0089583E05C
:10022000089584E98093BC008091BC0084FDFCCFDC
:100230000895CF93C82F84EA8093BC008091BC00BE
:100240008823E4F78091B900887F8830A1F7C093B4
:10025000BB0084E88093BC008091BC008823E4F755
:100260008091B900887F883119F00E941101E3CF95
:10027000CF9108958093BB0084E88093BC00809167
:10028000BC008823E4F78091B900887F883221F090
:10029000803321F481E0089580E0089582E008959C
:1002A00084EC8093BC008091BC008823E4F78091AB
:1002B000BB00089584E88093BC008091BC00882333
:1002C000E4F78091BB0008954F925F926F927F9206
:1002D000AF92BF92CF92DF92EF92FF920F931F9354
:1002E000CF93DF93CDB7DEB729013A019B01AC0173
:1002F000241935094609570989899A89AB89BC8926
:10030000BC01CD016A197B098C099D090E94DD0998
:10031000A801970124193509460957090E940F0AB7
:10032000C601B501620F731F841F951FDF91CF9126
:100330001F910F91FF90EF90DF90CF90BF90AF9003
:100340007F906F905F904F9008952FEF82E597E038
:10035000215080409040E1F700C0000080ED0E94F5
:10036000190189E10E943A0187E00E943A010E9446
:10037000110180ED0E9419018BE60E943A0181E093
:100380000E943A010E94110180ED0E9419018AE148
:100390000E943A0180E00E943A010E94110180ED22
:1003A0000E9419018BE10E943A0188E10E943A0102
:1003B0000E94110180ED0E94190188E30E943A0118
:1003C00081E00E943A010E941101089580ED0E948F
:1003D00019018BE30E943A0181ED0E94ED0008951E
:1003E000CF93DF930E94E6010E945001C82FD0E016
:1003F000DC2FCC270E945001BE01682B072E000C79
:10040000880B990B0E94880860939E0170939F014E
:100410008093A0019093A1010E945001C82FD0E0C9
:10042000DC2FCC270E945001BE01682B072E000C48
:10043000880B990B0E948808609392017093930136
:1004400080939401909395010E945001C82FD0E0B1
:10045000DC2FCC270E945001BE01682B072E000C18
:10046000880B990B0E948808609372017093730146
:1004700080937401909375010E945001C82FD0E0C1
:10048000DC2FCC270E945001BE01682B072E000CE8
:10049000880B990B0E9488086093860170938701EE
:1004A00080938801909389010E945001C82FD0E069
:1004B000DC2FCC270E945001BE01682B072E000CB8
:1004C000880B990B0E9488086093820170938301C6
:1004D00080938401909385010E945001C82FD0E041
:1004E000DC2FCC270E945001BE01682B072E000C88
:1004F000880B990B0E9488086093C2017093C30116
:100500008093C4019093C5010E945001C82FD0E090
:10051000DC2FCC270E945A01BE01682B072E000C4D
:10052000880B990B0E94880860939601709397013D
:1005300080939801909399010E941101DF91CF91CE
:1005400008954F925F926F927F928F929F92AF9297
:10055000BF92CF92DF92EF92FF92CF93DF9300D0C2
:1005600000D0CDB7DEB72091820130918301409158
:1005700084015091850160918A0170918B01809175
:100580008C0190918D010E94FA066B017C012AE09A
:1005900037ED43E25CE30E946C0920918E013091BB
:1005A0008F0140919001509191010E94FB064B01F7
:1005B0005C0160938E0170938F0180939001909302
:1005C00091012091A2013091A3014091A401509189
:1005D000A501C701B6010E94FA062AE037ED43E201
:1005E0005CE30E94DE0769837A838B839C8320917E
:1005F0001001309111014091120150911301C70176
:10060000B6010E946C092B013C0120910C01309134
:100610000D0140910E0150910F01C501B4010E94DE
:100620006C099B01AC01C301B2010E94FB064B01A6
:100630005C01209108013091090140910A0150911B
:100640000B0169817A818B819C810E946C099B01DD
:10065000AC01C501B4010E94FB0660939A0170933E
:100660009B0180939C0190939D01C092A201D09226
:10067000A301E092A401F092A5010F900F900F90BA
:100680000F90DF91CF91FF90EF90DF90CF90BF90D0
:10069000AF909F908F907F906F905F904F90089554
:1006A000CF92DF92EF92FF920F931F93CF93DF933E
:1006B000CDB7DEB76E970FB6F894DEBF0FBECDBFD5
:1006C0006C01E12CF12C7FC00E94F0016091AE0121
:1006D0007091AF018091B0019091B1010E948808A2
:1006E00020918201309183014091840150918501D4
:1006F0000E94FB060E9450086093AE017093AF0108
:100700008093B0019093B1016091AA017091AB0107
:100710008091AC019091AD010E9488082091C201A6
:100720003091C3014091C4015091C5010E94FB0664
:100730000E9450086093AA017093AB018093AC01B2
:100740009093AD016091BA017091BB018091BC01A1
:100750009091BD010E9488082091960130919701E7
:1007600040919801509199010E94FB060E94500807
:100770006093BA017093BB018093BC019093BD015B
:1007800080E18A95F1F78E010B5E1F4F4AE0B801B8
:10079000C6010E94680A1F930F9384E191E09F9322
:1007A0008F93045111091F930F930E948D0AC80162
:1007B0000E94E4068FEFE81AF80A0F900F900F904E
:1007C0000F900F900F90EC14FD040CF47DCF0D2CC6
:1007D000000CEE08FF086091AE017091AF018091AE
:1007E000B0019091B101A70196010E940F0A2093D8
:1007F000AE013093AF014093B0015093B1016091CD
:10080000AA017091AB018091AC019091AD01A7015B
:1008100096010E940F0A2093AA013093AB014093E6
:10082000AC015093AD016091BA017091BB01809110
:10083000BC019091BD01A70196010E940F0A20936F
:10084000BA013093BB014093BC015093BD016E9639
:100850000FB6F894DEBF0FBECDBFDF91CF911F91D1
:100860000F91FF90EF90DF90CF90089584B18E604C
:1008700084B98AB188668AB983EA8093B00084E03B
:100880008093B1001092B3001092B40008958617BF
:10089000970734F0481759072CF4842F952F0895A3
:1008A000862F972F08958F929F92AF92BF92CF92EB
:1008B000DF92EF92FF926B017C0149015A0120E027
:1008C00030E0A901C501B4010E945F0988236CF0E2
:1008D000C501B4010E9457086093B3008BB18064D6
:1008E0008BB98BB18F7D8BB90DC0C501B401905808
:1008F0000E9457086093B3008BB18F7B8BB98BB18B
:1009000080628BB920E030E0A901C701B6010E94E6
:100910005F0988236CF0C701B6010E9457086093F5
:10092000B40085B1826085B985B18B7F85B90DC072
:10093000C701B60190580E9457086093B40085B172
:100940008D7F85B985B1846085B9FF90EF90DF9088
:10095000CF90BF90AF909F908F900895CF93DF93EB
:10096000CDB7DEB7E6970FB6F894DEBF0FBECDBFAA
:100970000E9436040E94E7000E94A50160E875E22B
:1009800080E090E00E94A90684E690E00E94500377
:100990000E94F0016091AE017091AF018091B001B1
:1009A0009091B1010E9488089B01AC016091820185
:1009B0007091830180918401909185010E94FA06D3
:1009C0006B017C016091AA017091AB018091AC0137
:1009D0009091AD010E9488089B01AC016091C20119
:1009E0007091C3018091C4019091C5010E94FA06E3
:1009F0006093C2017093C3018093C4019093C501B9
:100A00006091BA017091BB018091BC019091BD01D0
:100A10000E9488089B01AC0160919601709197013A
:100A200080919801909199010E94FA066093960135
:100A30007093970180939801909399012FE73AE67C
:100A40004CE15FE3C701B6010E946C09609382012B
:100A50007093830180938401909385012AE037EDA0
:100A600043E25CE30E946C0920916E0130916F01BA
:100A700040917001509171010E94FB0623E333E322
:100A800043E75FE30E946C096B017C018091920156
:100A900090919301A0919401B0919501BC01CD0179
:100AA00090582091720130917301409174015091DE
:100AB00075010E947A0720E030E044E353E40E948D
:100AC0006C092BED3FE049E450E40E94DE0720ED85
:100AD0003CEC4CE45DE30E946C099B01AC01C70156
:100AE000B6010E94FB0660936E0170936F018093C4
:100AF000700190937101DC01CB01B05880938A01A1
:100B000090938B01A0938C01B0938D010E94A10260
:100B100060919A0170919B0180919C0190919D013F
:100B20000E9450081F921F921F922FEF2F93AA240A
:100B3000A394BB24BA94CB2CDB2C10E3E12E15E755
:100B4000F12E00E010E020ED3AE84FEF5FEF0E9459
:100B500064010F900F900F900F900E9488086B0116
:100B60007C0160939A0170939B0180939C01909308
:100B70009D0120E030E04FE753E40E945F09181622
:100B80006CF480E090E0AFE7B3E480939A01909337
:100B90009B01A0939C01B0939D0116C020E030E022
:100BA0004FE753ECC701B6010E94D907882364F4CC
:100BB00080E090E0AFE7B3EC80939A0190939B01C3
:100BC000A0939C01B0939D01C0909A01D0909B018D
:100BD000E0909C01F0909D01A701960160910001B9
:100BE0007091010180910201909103010E94FA0627
:100BF0000E9450084B015C012091040130910501D5
:100C00004091060150910701C701B6010E94FB0601
:100C10000E9450082B013C014DE750E060E070E07D
:100C2000C4010E9447047C014DE750E060E070E0A1
:100C3000C2010E944704BC01990F880B990B0E94C6
:100C400088082B013C01B701FF0C880B990B0E940F
:100C500088086BAB7CAB8DAB9EABA30192010E946D
:100C600053047E0189E2E80EF11C609182017091CB
:100C700083018091840190918501870122E043E006
:100C80000E94480A1F920F2EF8EFBF2EF02DBF9240
:100C9000FF92EF9286E291E09F938F93CE010196AF
:100CA0006C019F938F930E948D0AC6010E94E406F7
:100CB00060919A0170919B0180919C0190919D019E
:100CC00022E043E00E94480A1F92BF92FF92EF92F7
:100CD00084E391E09F938F93DF92CF920E948D0ADD
:100CE000C6010E94E40622E043E06BA97CA98DA91D
:100CF0009EA90E94480A1F92BF92FF92EF9283E43E
:100D000091E09F938F93DF92CF920E948D0AC6014C
:100D10000E94E40622E043E0C301B2010E94480AB7
:100D20001F92BF92FF92EF9288E591E09F938F937D
:100D30007E0195E1E90EF11CFF92EF920E948D0A6F
:100D40000FB6F894DEBF0FBECDBFC7010E94E40608
:100D50001FCEE1ECF0E0208128612083E2ECF0E09E
:100D600020812E602083DC01CB01880F991FAA1FF0
:100D7000BB1F880F991FAA1FBB1F9C01AD01220F2B
:100D8000331F441F551F220F331F441F551F60E0A0
:100D900074E284EF90E00E94ED098FEF820F809360
:100DA000C400DA01C9010197A109B109892F9A2F5D
:100DB000AB2FBB278093C50008958093C600809118
:100DC000C00085FFFCCF08950F931F93CF93DF934F
:100DD0008C01C0E0D0E003C00E94DD062196F8013E
:100DE000EC0FFD1F80818111F7CFDF91CF911F9113
:100DF0000F9108955058BB27AA270E9412070C9400
:100E000025090E94170938F00E941E0920F039F4C4
:100E10009F3F19F426F40C94ED080EF4E095E7FBDF
:100E20000C94E708E92F0E94360958F3BA176207B5
:100E300073078407950720F079F4A6F50C945809F8
:100E40000EF4E0950B2EBA2FA02D0B01B9019001E5
:100E50000C01CA01A0011124FF27591B99F0593F29
:100E600050F4503E68F11A16F040A22F232F342F71
:100E70004427585FF3CF469537952795A795F040BF
:100E80005395C9F77EF41F16BA0B620B730B840BD4
:100E9000BAF09150A1F0FF0FBB1F661F771F881F8C
:100EA000C2F70EC0BA0F621F731F841F48F48795E4
:100EB00077956795B795F7959E3F08F0B0CF9395D6
:100EC000880F08F09927EE0F9795879508950E944F
:100ED000170960F080E891E009F49EEF0E941E0976
:100EE00028F040E851E071F45EEF0CC00C94ED087E
:100EF0000C945809E92FE0780E94360940F3092E36
:100F0000052AB1F3261737074807590738F00E2E80
:100F100007F8E02569F0E025E0640AC0EF6307F810
:100F2000009407FADB01B9019D01DC01CA01AD01A2
:100F3000EF930E94F5070E9425090E94AA075F917E
:100F4000552339F02BED3FE049E450FD49EC0C947A
:100F5000FB060895DF93DD27B92FBF7740E85FE3F5
:100F60001616170648075B0718F4D92F0E94640964
:100F70009F938F937F936F930E94D909E8E6F0E0E7
:100F80000E94F0080E9425092F913F914F915F9197
:100F90000E947F09DD2351F09058A2EA2AED3FE03C
:100FA00049EC5FE3D0785D270E941207DF910C9433
:100FB00025090E94C30808F481E008950E94F20701
:100FC0000C9425090E941E0958F00E94170940F050
:100FD00029F45F3F29F00C94E70851110C9459094A
:100FE0000C94ED080E94360968F39923B1F3552358
:100FF00091F3951B550BBB27AA276217730784072C
:1010000038F09F5F5F4F220F331F441FAA1FA9F3C1
:1010100035D00E2E3AF0E0E832D091505040E695AF
:10102000001CCAF72BD0FE2F29D0660F771F881F10
:10103000BB1F261737074807AB07B0E809F0BB0B03
:10104000802DBF01FF2793585F4F3AF09E3F510517
:1010500078F00C94E7080C9459095F3FE4F3983E4C
:10106000D4F3869577956795B795F7959F5FC9F700
:10107000880F911D9695879597F90895E1E0660F81
:10108000771F881FBB1F621773078407BA0720F0FA
:10109000621B730B840BBA0BEE1F88F7E095089563
:1010A0000E9457086894B1110C94590908950E9440
:1010B0003E0988F09F5798F0B92F9927B751B0F0A3
:1010C000E1F0660F771F881F991F1AF0BA95C9F7CC
:1010D00014C0B13091F00E945809B1E008950C9409
:1010E0005809672F782F8827B85F39F0B93FCCF3BC
:1010F000869577956795B395D9F73EF49095809549
:10110000709561957F4F8F4F9F4F0895E89409C068
:1011100097FB3EF490958095709561957F4F8F4F2A
:101120009F4F9923A9F0F92F96E9BB279395F69540
:10113000879577956795B795F111F8CFFAF4BB0FBE
:1011400011F460FF1BC06F5F7F4F8F4F9F4F16C022
:10115000882311F096E911C0772321F09EE8872FAC
:10116000762F05C0662371F096E8862F70E060E068
:101170002AF09A95660F771F881FDAF7880F9695E1
:10118000879597F90895990F0008550FAA0BE0E885
:10119000FEEF16161706E807F907C0F01216130639
:1011A000E407F50798F0621B730B840B950B39F479
:1011B0000A2661F0232B242B252B21F408950A26DF
:1011C00009F4A140A6958FEF811D811D089597F91F
:1011D0009F6780E870E060E008959FEF80EC0895DD
:1011E000DF93CF931F930F93FF92EF92DF927B01D8
:1011F0008C01689406C0DA2EEF010E947F09FE017F
:10120000E894A5912591359145915591A6F3EF016B
:101210000E941207FE019701A801DA9469F7DF9096
:10122000EF90FF900F911F91CF91DF9108950024CF
:101230000A941616170618060906089500240A943B
:1012400012161306140605060895092E0394000CC1
:1012500011F4882352F0BB0F40F4BF2B11F460FF50
:1012600004C06F5F7F4F8F4F9F4F089557FD905879
:10127000440F551F59F05F3F71F04795880F97FB5A
:10128000991F61F09F3F79F0879508951216130614
:101290001406551FF2CF4695F1DF08C01616170643
:1012A0001806991FF1CF8695710561050894089578
:1012B000E894BB2766277727CB0197F908950E940A
:1012C000C30808F48FEF08959B01AC0160E070E063
:1012D00080E89FE30C94DE070E947F090C942509A7
:1012E0000E94170938F00E941E0920F0952311F082
:1012F0000C94E7080C94ED0811240C9459090E94F1
:10130000360970F3959FC1F3950F50E0551F629F0A
:10131000F001729FBB27F00DB11D639FAA27F00D4E
:10132000B11DAA1F649F6627B00DA11D661F829F75
:101330002227B00DA11D621F739FB00DA11D621F5A
:10134000839FA00D611D221F749F3327A00D611D77
:10135000231F849F600D211D822F762F6A2F112459
:101360009F5750409AF0F1F088234AF0EE0FFF1F8C
:10137000BB1F661F771F881F91505040A9F79E3FE3
:10138000510580F00C94E7080C9459095F3FE4F391
:10139000983ED4F3869577956795B795F795E79539
:1013A0009F5FC1F7FE2B880F911D9695879597F942
:1013B00008959B01AC010C946C09DB018F939F9302
:1013C0000E942E0ABF91AF91A29F800D911DA39FF5
:1013D000900DB29F900D11240895A1E21A2EAA1B20
:1013E000BB1BFD010DC0AA1FBB1FEE1FFF1FA217D5
:1013F000B307E407F50720F0A21BB30BE40BF50BD2
:10140000661F771F881F991F1A9469F7609570955A
:10141000809590959B01AC01BD01CF010895052EEB
:1014200097FB1EF400940E94260A57FD07D00E94E5
:10143000ED0907FC03D04EF40C94260A5095409514
:10144000309521953F4F4F4F5F4F08959095809570
:10145000709561957F4F8F4F9F4F08950E94390A75
:10146000A59F900DB49F900DA49F800D911D1124F8
:101470000895A29FB001B39FC001A39F700D811D6D
:101480001124911DB29F700D811D1124911D08958D
:10149000EF920F931F93CF93DF93E80147FD02C0B4
:1014A00034E001C034E1042E000C550B57FF03C09B
:1014B000519541955109E32E022F242FAE010E9430
:1014C000900CCE01DF91CF911F910F91EF90089575
:1014D000BB274A3031F4992322F4BDE290958195DF
:1014E0009F4F0C94740ABB27FB015527AA27880F2E
:1014F000991FAA1FA41710F0A41B83955051B9F788
:10150000A05DAA3308F0A95DA193009779F7B11106
:10151000B1931192CB010C94D80EAEE0B0E0E3E9A8
:10152000FAE00C94900F0D891E8986E08C831A8353
:1015300009838FEF9FE79E838D83AE01475E5F4FE8
:101540006F89788DCE0101960E94AF0AEF81F885F0
:10155000E00FF11F10822E96E4E00C94AC0FABE08C
:10156000B0E0E5EBFAE00C94820F6C017B018A019C
:10157000FC0117821682838181FFCCC1CE010196C6
:101580003C01F6019381F70193FD859193FF8191D1
:101590007F01882309F4BAC1853239F493FD85911E
:1015A00093FF81917F01853229F4B60190E00E947A
:1015B000E80EE7CF912C212C312CFFE1F315D8F068
:1015C0008B3279F038F4803279F08332A1F4232D14
:1015D00020611DC08D3261F0803369F4232D2160BC
:1015E00016C0832D8260382EE32DE4603E2E2AC083
:1015F000F32DF8601DC037FC2DC020ED280F2A30D8
:1016000040F08E32B9F436FC81C1232D2064322E95
:1016100019C036FE06C08AE0989E200D1124922E35
:1016200011C0EAE02E9E200D1124222EF32DF0622F
:101630003F2E08C08C3621F4832D8068382E02C0DE
:10164000883641F4F70193FD859193FF81917F01E5
:101650008111B3CF982F9F7D9554933028F40C5F60
:101660001F4F9FE399830DC0833631F0833771F0AC
:10167000833509F059C021C0F801808189830E5F4C
:101680001F4F88248394912C530113C02801F2E04A
:101690004F0E511CF801A080B18036FE03C0692DA9
:1016A00070E002C06FEF7FEFC5010E94CD0E4C01CC
:1016B0008201F32DFF773F2E16C0280122E0420E53
:1016C000511CF801A080B18036FE03C0692D70E086
:1016D00002C06FEF7FEFC5010E94C20E4C01F32DD7
:1016E000F0683F2E820133FC1BC0822D90E08816EB
:1016F0009906B0F4B60180E290E00E94E80E2A94C8
:10170000F4CFF50137FC859137FE81915F01B60179
:1017100090E00E94E80E21102A9421E0821A91089C
:101720008114910471F7E8C0843611F0893641F5CF
:10173000F80137FE07C060817181828193810C5F5F
:101740001F4F08C060817181072E000C880B990B18
:101750000E5F1F4FF32DFF763F2E97FF09C0909528
:101760008095709561957F4F8F4F9F4FF0683F2E0A
:101770002AE030E0A3010E94240F882E861845C07D
:10178000853731F4232D2F7EB22E2AE030E025C09C
:10179000932D997FB92E8F36C1F018F4883579F0E2
:1017A000B5C0803719F0883721F0B0C0E92FE0616B
:1017B000BE2EB4FE0DC0FB2DF460BF2E09C034FE5A
:1017C0000AC0292F2660B22E06C028E030E005C0EE
:1017D00020E130E002C020E132E0F801B7FE07C0AE
:1017E00060817181828193810C5F1F4F06C060818F
:1017F000718180E090E00E5F1F4FA3010E94240FD3
:10180000882E8618FB2DFF773F2E36FE0DC0232D28
:101810002E7FA22E891458F434FE0BC032FC09C06E
:10182000832D8E7EA82E05C0B82CA32C03C0B82C07
:1018300001C0B92CA4FE0FC0FE01E80DF11D80818E
:10184000803321F49A2D997EA92E09C0A2FE06C0EC
:10185000B394B39404C08A2D867809F0B394A3FCA2
:1018600011C0A0FE06C0B21488F4280C922C9B185C
:101870000EC0B21460F4B60180E290E00E94E80E5F
:10188000B394F7CFB21418F42B1802C0982C212C63
:10189000A4FE10C0B60180E390E00E94E80EA2FE14
:1018A00017C0A1FC03C088E790E002C088E590E083
:1018B000B6010CC08A2D867859F0A1FE02C08BE2D9
:1018C00001C080E2A7FC8DE2B60190E00E94E80E24
:1018D000891438F4B60180E390E00E94E80E9A94EF
:1018E000F7CF8A94F301E80DF11D8081B60190E0F5
:1018F0000E94E80E8110F5CF222009F442CEB601F5
:1019000080E290E00E94E80E2A94F6CFF6018681EC
:10191000978102C08FEF9FEF2B96E2E10C949E0F10
:10192000A9E0B0E0E6E9FCE00C94880F6A01122F10
:10193000B02E2BE3201720F0FF24F394F00E02C00A
:101940002CE3F22E0F2D27E0AE014F5F5F4F0E9478
:10195000EA0DBC014981842F8970813031F0E1FCAE
:1019600006C0E0FE06C090E205C09DE203C09BE217
:1019700001C090E05E2D507143FF3CC0911102C048
:1019800083E001C084E0811718F4212F281B01C0D7
:1019900020E051110BC0F601822F30E2882319F0AC
:1019A00031938150FBCFC20ED11C20E0992329F046
:1019B000D6019C93F60131966F01C6010396E2FEB3
:1019C0000AC03EE4D6013C9341E411964C93119732
:1019D00012963C9306C03EE6F601308341E6418311
:1019E0003283FC01322F40E2332309F442C0419399
:1019F0003150FACF42FF44C0911102C083E001C0D0
:101A000084E0811718F4212F281B01C020E0511118
:101A10000BC0F601822F30E2882319F031938150F8
:101A2000FBCFC20ED11C20E0992329F0D6019C9354
:101A3000F60131966F01C6010396E2FE0BC039E450
:101A4000D6013C933EE411963C93119736E41296EE
:101A50003C9307C039E6F60130833EE6318336E633
:101A60003283FC01322F40E2332319F0419331508D
:101A7000FBCFFC01E20FF11D10828EEF9FEFA6C09D
:101A800021E030E0911102C020E030E01616170688
:101A90001CF4FB01319602C0E1E0F0E02E0F3F1F85
:101AA000BB2021F0EB2DF0E0319602C0E0E0F0E049
:101AB0002E0F3F1FE12FF0E02E173F071CF4121BE3
:101AC000212F01C020E08E2D887159F4F601822F5C
:101AD00030E2882319F031938150FBCFC20ED11C24
:101AE00020E0992329F0D6019C93F60131966F01ED
:101AF00051110BC0F601822F90E3882319F09193C6
:101B00008150FBCFC20ED11C20E00F2D060F9A8111
:101B1000342F307144FF03C0913309F40150101683
:101B200024F4093018F008E001C001E0AB0177FFB0
:101B300002C040E050E0FB01E41BF50BA1E0B0E087
:101B4000AC0FBD1FEA0FFB1F8EE2A82E4B01801ABF
:101B500091080B2D10E01195019511094F3FBFEF32
:101B60005B0721F4D601AC9211966D0164177507DD
:101B70002CF08416950614F4818101C080E3415055
:101B800051093196D60111967D014017510724F075
:101B9000D6018C936701E2CF6417750739F4963349
:101BA00020F4953319F4311101C081E3F6018083EB
:101BB000F701822F90E2882319F091938150FBCF97
:101BC000F701E20FF11D108280E090E02996ECE031
:101BD0000C94A40F283008F027E03327DA01990F7E
:101BE000311D87FD916000966105710539F4326001
:101BF0002E5F3D9330E32A95E1F708959F3F30F043
:101C000080387105610509F03C5F3C5F3D93913080
:101C100008F08068911DDF93CF931F930F93FF927D
:101C2000EF92192F987F9695E92F96959695E90F43
:101C3000FF27E051FF4F99273327EE24FF24A70108
:101C4000E70105900894079428F4360FE71EF81E64
:101C5000491F511D660F771F881F991F0694A1F712
:101C60000590079428F4E70EF81E491F561FC11D62
:101C7000770F881F991F661F0694A1F70590079498
:101C800028F4F80E491F561FC71FD11D880F991F32
:101C9000661F771F0694A1F70590079420F4490F5B
:101CA000561FC71FD81F990F661F771F881F0694DE
:101CB000A9F784911095177041F0D695C79557955F
:101CC0004795F794E7941A95C1F7E6E9F0E0689430
:101CD0001590159135916591959105907FE27395D9
:101CE000E118F10A430B560BC90BD009C0F7E10C00
:101CF000F11E431F561FC91FD01D7EF4703311F40F
:101D00008A95E6CFE894015030F0080F0AF40027D6
:101D1000021708F4202F2395022F7A3328F079E355
:101D20007D932A95E9F710C07D932A9589F606944C
:101D300097956795379517951794E118F10A430B16
:101D4000560BC90BD00998F023957E9173957A3381
:101D500008F070E37C932013B8F77E9170617D9357
:101D600030F0839571E37D9370E32A95E1F71124B8
:101D7000EF90FF900F911F91CF91DF91992787FDF1
:101D800090950895FC010590615070400110D8F7BE
:101D9000809590958E0F9F1F0895FC0161507040B3
:101DA00001900110D8F7809590958E0F9F1F089590
:101DB000DC01FC01672F71917723E1F7329704C0B2
:101DC0007C916D9370836291AE17BF07C8F308953D
:101DD0000F931F93CF93DF93FB01238121FD03C05A
:101DE0008FEF9FEF2CC022FF16C0468157812481C0
:101DF00035814217530744F4A081B1819D012F5FC3
:101E00003F4F318320838C93268137812F5F3F4F53
:101E10003783268314C08B01EC01FB010084F1851C
:101E2000E02D0995892BE1F6D80116968D919C91AC
:101E30001797019617969C938E931697CE01DF9174
:101E4000CF911F910F910895FA01AA27283051F1DF
:101E5000203181F1E8946F936E7F6E5F7F4F8F4FDB
:101E60009F4FAF4FB1E03ED0B4E03CD0670F781F3A
:101E7000891F9A1FA11D680F791F8A1F911DA11D1F
:101E80006A0F711D811D911DA11D20D009F4689458
:101E90003F912AE0269F11243019305D3193DEF600
:101EA000CF010895462F4770405D4193B3E00FD0B6
:101EB000C9F7F6CF462F4F70405D4A3318F0495DA1
:101EC00031FD4052419302D0A9F7EACFB4E0A69584
:101ED0009795879577956795BA95C9F700976105A6
:101EE000710508959B01AC010A2E069457954795FC
:101EF00037952795BA95C9F7620F731F841F951FF1
:101F0000A01D08952F923F924F925F926F927F9201
:101F10008F929F92AF92BF92CF92DF92EF92FF92F9
:101F20000F931F93CF93DF93CDB7DEB7CA1BDB0BA5
:101F30000FB6F894DEBF0FBECDBF09942A8839884A
:101F400048885F846E847D848C849B84AA84B98451
:101F5000C884DF80EE80FD800C811B81AA81B9815D
:101F6000CE0FD11D0FB6F894DEBF0FBECDBFED0171
:061F70000895F894FFCF74
:101F76000000FA420000FA420000C8419A99193F4F
:101F86000000C0406B616C6962726173692D202527
:101F9600732F730D0A00204778203D202573256393
:101FA6002F73090020706964203D20257325632F57
:101FB6007309002050494473706565644C203D20C8
:101FC600257325632F730900205049447370656596
:0E1FD6006452203D20257325632F730D0A00F1
:00000001FF
